{
  "_format": "hh-sol-artifact-1",
  "contractName": "Crowdfunding_Taha",
  "sourceName": "contracts/Crowdfunding_Taha.sol",
  "abi": [
    {
      "inputs": [
        {
          "internalType": "address",
          "name": "_kycContractAddress",
          "type": "address"
        }
      ],
      "stateMutability": "nonpayable",
      "type": "constructor"
    },
    {
      "anonymous": false,
      "inputs": [
        {
          "indexed": false,
          "internalType": "uint256",
          "name": "campaignId",
          "type": "uint256"
        },
        {
          "indexed": false,
          "internalType": "address",
          "name": "creator",
          "type": "address"
        },
        {
          "indexed": false,
          "internalType": "string",
          "name": "title",
          "type": "string"
        },
        {
          "indexed": false,
          "internalType": "uint256",
          "name": "goal",
          "type": "uint256"
        }
      ],
      "name": "CampaignCreated",
      "type": "event"
    },
    {
      "anonymous": false,
      "inputs": [
        {
          "indexed": false,
          "internalType": "uint256",
          "name": "campaignId",
          "type": "uint256"
        },
        {
          "indexed": false,
          "internalType": "address",
          "name": "contributor",
          "type": "address"
        },
        {
          "indexed": false,
          "internalType": "uint256",
          "name": "amount",
          "type": "uint256"
        }
      ],
      "name": "ContributionMade",
      "type": "event"
    },
    {
      "anonymous": false,
      "inputs": [
        {
          "indexed": false,
          "internalType": "uint256",
          "name": "campaignId",
          "type": "uint256"
        },
        {
          "indexed": false,
          "internalType": "address",
          "name": "creator",
          "type": "address"
        },
        {
          "indexed": false,
          "internalType": "uint256",
          "name": "amount",
          "type": "uint256"
        }
      ],
      "name": "FundsWithdrawn",
      "type": "event"
    },
    {
      "inputs": [],
      "name": "admin",
      "outputs": [
        {
          "internalType": "address",
          "name": "",
          "type": "address"
        }
      ],
      "stateMutability": "view",
      "type": "function"
    },
    {
      "inputs": [],
      "name": "campaignCount",
      "outputs": [
        {
          "internalType": "uint256",
          "name": "",
          "type": "uint256"
        }
      ],
      "stateMutability": "view",
      "type": "function"
    },
    {
      "inputs": [
        {
          "internalType": "uint256",
          "name": "",
          "type": "uint256"
        }
      ],
      "name": "campaigns",
      "outputs": [
        {
          "internalType": "string",
          "name": "title",
          "type": "string"
        },
        {
          "internalType": "string",
          "name": "description",
          "type": "string"
        },
        {
          "internalType": "uint256",
          "name": "goal",
          "type": "uint256"
        },
        {
          "internalType": "uint256",
          "name": "fundsRaised",
          "type": "uint256"
        },
        {
          "internalType": "address",
          "name": "creator",
          "type": "address"
        },
        {
          "internalType": "enum Crowdfunding_Taha.CampaignStatus",
          "name": "status",
          "type": "uint8"
        }
      ],
      "stateMutability": "view",
      "type": "function"
    },
    {
      "inputs": [
        {
          "internalType": "uint256",
          "name": "_campaignId",
          "type": "uint256"
        }
      ],
      "name": "contribute",
      "outputs": [],
      "stateMutability": "payable",
      "type": "function"
    },
    {
      "inputs": [
        {
          "internalType": "string",
          "name": "_title",
          "type": "string"
        },
        {
          "internalType": "string",
          "name": "_description",
          "type": "string"
        },
        {
          "internalType": "uint256",
          "name": "_goal",
          "type": "uint256"
        }
      ],
      "name": "createCampaign",
      "outputs": [],
      "stateMutability": "nonpayable",
      "type": "function"
    },
    {
      "inputs": [
        {
          "internalType": "uint256",
          "name": "_campaignId",
          "type": "uint256"
        }
      ],
      "name": "deleteCampaign",
      "outputs": [],
      "stateMutability": "nonpayable",
      "type": "function"
    },
    {
      "inputs": [],
      "name": "getAllCampaigns",
      "outputs": [
        {
          "components": [
            {
              "internalType": "string",
              "name": "title",
              "type": "string"
            },
            {
              "internalType": "string",
              "name": "description",
              "type": "string"
            },
            {
              "internalType": "uint256",
              "name": "goal",
              "type": "uint256"
            },
            {
              "internalType": "uint256",
              "name": "fundsRaised",
              "type": "uint256"
            },
            {
              "internalType": "address",
              "name": "creator",
              "type": "address"
            },
            {
              "internalType": "enum Crowdfunding_Taha.CampaignStatus",
              "name": "status",
              "type": "uint8"
            }
          ],
          "internalType": "struct Crowdfunding_Taha.Campaign[]",
          "name": "",
          "type": "tuple[]"
        }
      ],
      "stateMutability": "view",
      "type": "function"
    },
    {
      "inputs": [],
      "name": "kycContract",
      "outputs": [
        {
          "internalType": "contract IKYCRegistry",
          "name": "",
          "type": "address"
        }
      ],
      "stateMutability": "view",
      "type": "function"
    },
    {
      "inputs": [
        {
          "internalType": "uint256",
          "name": "_campaignId",
          "type": "uint256"
        }
      ],
      "name": "withdrawFunds",
      "outputs": [],
      "stateMutability": "nonpayable",
      "type": "function"
    }
  ],
  "bytecode": "0x60806040523480156200001157600080fd5b506040516200204538038062002045833981810160405281019062000037919062000129565b806000806101000a81548173ffffffffffffffffffffffffffffffffffffffff021916908373ffffffffffffffffffffffffffffffffffffffff16021790555033600160006101000a81548173ffffffffffffffffffffffffffffffffffffffff021916908373ffffffffffffffffffffffffffffffffffffffff160217905550506200015b565b600080fd5b600073ffffffffffffffffffffffffffffffffffffffff82169050919050565b6000620000f182620000c4565b9050919050565b6200010381620000e4565b81146200010f57600080fd5b50565b6000815190506200012381620000f8565b92915050565b600060208284031215620001425762000141620000bf565b5b6000620001528482850162000112565b91505092915050565b611eda806200016b6000396000f3fe6080604052600436106100865760003560e01c80637597019311610059578063759701931461014c57806386cdf60414610175578063c1cbbca7146101a0578063f851a440146101bc578063ffa56a57146101e757610086565b8063141961bc1461008b578063155dd5ee146100cd5780636d3123eb146100f65780637274e30d14610121575b600080fd5b34801561009757600080fd5b506100b260048036038101906100ad9190610f16565b610210565b6040516100c49695949392919061109a565b60405180910390f35b3480156100d957600080fd5b506100f460048036038101906100ef9190610f16565b610389565b005b34801561010257600080fd5b5061010b6105cd565b6040516101189190611168565b60405180910390f35b34801561012d57600080fd5b506101366105f1565b6040516101439190611183565b60405180910390f35b34801561015857600080fd5b50610173600480360381019061016e9190610f16565b6105f7565b005b34801561018157600080fd5b5061018a61070b565b6040516101979190611367565b60405180910390f35b6101ba60048036038101906101b59190610f16565b61098e565b005b3480156101c857600080fd5b506101d1610b4d565b6040516101de9190611389565b60405180910390f35b3480156101f357600080fd5b5061020e600480360381019061020991906114d9565b610b73565b005b600260205280600052604060002060009150905080600001805461023390611593565b80601f016020809104026020016040519081016040528092919081815260200182805461025f90611593565b80156102ac5780601f10610281576101008083540402835291602001916102ac565b820191906000526020600020905b81548152906001019060200180831161028f57829003601f168201915b5050505050908060010180546102c190611593565b80601f01602080910402602001604051908101604052809291908181526020018280546102ed90611593565b801561033a5780601f1061030f5761010080835404028352916020019161033a565b820191906000526020600020905b81548152906001019060200180831161031d57829003601f168201915b5050505050908060020154908060030154908060040160009054906101000a900473ffffffffffffffffffffffffffffffffffffffff16908060040160149054906101000a900460ff16905086565b60006002600083815260200190815260200160002090503373ffffffffffffffffffffffffffffffffffffffff168160040160009054906101000a900473ffffffffffffffffffffffffffffffffffffffff1673ffffffffffffffffffffffffffffffffffffffff1614610432576040517f08c379a000000000000000000000000000000000000000000000000000000000815260040161042990611636565b60405180910390fd5b6001600281111561044657610445611023565b5b8160040160149054906101000a900460ff16600281111561046a57610469611023565b5b146104aa576040517f08c379a00000000000000000000000000000000000000000000000000000000081526004016104a1906116a2565b60405180910390fd5b60028160040160146101000a81548160ff021916908360028111156104d2576104d1611023565b5b021790555060008160030154905060003373ffffffffffffffffffffffffffffffffffffffff1682604051610506906116f3565b60006040518083038185875af1925050503d8060008114610543576040519150601f19603f3d011682016040523d82523d6000602084013e610548565b606091505b505090508061058c576040517f08c379a000000000000000000000000000000000000000000000000000000000815260040161058390611754565b60405180910390fd5b7ff440aec6b52895984d061d622e6edeba6210f7c3e059be920663140c084560d78433846040516105bf93929190611774565b60405180910390a150505050565b60008054906101000a900473ffffffffffffffffffffffffffffffffffffffff1681565b60035481565b600160009054906101000a900473ffffffffffffffffffffffffffffffffffffffff1673ffffffffffffffffffffffffffffffffffffffff163373ffffffffffffffffffffffffffffffffffffffff1614610687576040517f08c379a000000000000000000000000000000000000000000000000000000000815260040161067e9061181d565b60405180910390fd5b60026000828152602001908152602001600020600080820160006106ab9190610e11565b6001820160006106bb9190610e11565b600282016000905560038201600090556004820160006101000a81549073ffffffffffffffffffffffffffffffffffffffff02191690556004820160146101000a81549060ff0219169055505050565b6060600060035467ffffffffffffffff81111561072b5761072a6113ae565b5b60405190808252806020026020018201604052801561076457816020015b610751610e51565b8152602001906001900390816107495790505b50905060005b60035481101561098657600260008281526020019081526020016000206040518060c00160405290816000820180546107a290611593565b80601f01602080910402602001604051908101604052809291908181526020018280546107ce90611593565b801561081b5780601f106107f05761010080835404028352916020019161081b565b820191906000526020600020905b8154815290600101906020018083116107fe57829003601f168201915b5050505050815260200160018201805461083490611593565b80601f016020809104026020016040519081016040528092919081815260200182805461086090611593565b80156108ad5780601f10610882576101008083540402835291602001916108ad565b820191906000526020600020905b81548152906001019060200180831161089057829003601f168201915b5050505050815260200160028201548152602001600382015481526020016004820160009054906101000a900473ffffffffffffffffffffffffffffffffffffffff1673ffffffffffffffffffffffffffffffffffffffff1673ffffffffffffffffffffffffffffffffffffffff1681526020016004820160149054906101000a900460ff16600281111561094557610944611023565b5b600281111561095757610956611023565b5b8152505082828151811061096e5761096d61183d565b5b6020026020010181905250808060010191505061076a565b508091505090565b6000600260008381526020019081526020016000209050600060028111156109b9576109b8611023565b5b8160040160149054906101000a900460ff1660028111156109dd576109dc611023565b5b14610a1d576040517f08c379a0000000000000000000000000000000000000000000000000000000008152600401610a14906118b8565b60405180910390fd5b60003411610a60576040517f08c379a0000000000000000000000000000000000000000000000000000000008152600401610a579061194a565b60405180910390fd5b8060020154348260030154610a759190611999565b1115610ab6576040517f08c379a0000000000000000000000000000000000000000000000000000000008152600401610aad90611a3f565b60405180910390fd5b34816003016000828254610aca9190611999565b925050819055507f0a4a91237423e0a1766a761c7cb029311d8b95d6b1b81db1b949a70c98b4e08e823334604051610b0493929190611774565b60405180910390a18060020154816003015403610b495760018160040160146101000a81548160ff02191690836002811115610b4357610b42611023565b5b02179055505b5050565b600160009054906101000a900473ffffffffffffffffffffffffffffffffffffffff1681565b60008054906101000a900473ffffffffffffffffffffffffffffffffffffffff1673ffffffffffffffffffffffffffffffffffffffff16638367d1ff336040518263ffffffff1660e01b8152600401610bcc9190611389565b602060405180830381865afa158015610be9573d6000803e3d6000fd5b505050506040513d601f19601f82011682018060405250810190610c0d9190611a97565b610c4c576040517f08c379a0000000000000000000000000000000000000000000000000000000008152600401610c4390611b10565b60405180910390fd5b60008111610c8f576040517f08c379a0000000000000000000000000000000000000000000000000000000008152600401610c8690611b7c565b60405180910390fd5b6040518060c00160405280848152602001838152602001828152602001600081526020013373ffffffffffffffffffffffffffffffffffffffff16815260200160006002811115610ce357610ce2611023565b5b8152506002600060035481526020019081526020016000206000820151816000019081610d109190611d3e565b506020820151816001019081610d269190611d3e565b50604082015181600201556060820151816003015560808201518160040160006101000a81548173ffffffffffffffffffffffffffffffffffffffff021916908373ffffffffffffffffffffffffffffffffffffffff16021790555060a08201518160040160146101000a81548160ff02191690836002811115610dad57610dac611023565b5b02179055509050507f825fb10f7650ed27414d6f86acdf7d5946927d9b25001f045f1a2435deec02fe600354338584604051610dec9493929190611e10565b60405180910390a160036000815480929190610e0790611e5c565b9190505550505050565b508054610e1d90611593565b6000825580601f10610e2f5750610e4e565b601f016020900490600052602060002090810190610e4d9190610eaf565b5b50565b6040518060c0016040528060608152602001606081526020016000815260200160008152602001600073ffffffffffffffffffffffffffffffffffffffff16815260200160006002811115610ea957610ea8611023565b5b81525090565b5b80821115610ec8576000816000905550600101610eb0565b5090565b6000604051905090565b600080fd5b600080fd5b6000819050919050565b610ef381610ee0565b8114610efe57600080fd5b50565b600081359050610f1081610eea565b92915050565b600060208284031215610f2c57610f2b610ed6565b5b6000610f3a84828501610f01565b91505092915050565b600081519050919050565b600082825260208201905092915050565b60005b83811015610f7d578082015181840152602081019050610f62565b60008484015250505050565b6000601f19601f8301169050919050565b6000610fa582610f43565b610faf8185610f4e565b9350610fbf818560208601610f5f565b610fc881610f89565b840191505092915050565b610fdc81610ee0565b82525050565b600073ffffffffffffffffffffffffffffffffffffffff82169050919050565b600061100d82610fe2565b9050919050565b61101d81611002565b82525050565b7f4e487b7100000000000000000000000000000000000000000000000000000000600052602160045260246000fd5b6003811061106357611062611023565b5b50565b600081905061107482611052565b919050565b600061108482611066565b9050919050565b61109481611079565b82525050565b600060c08201905081810360008301526110b48189610f9a565b905081810360208301526110c88188610f9a565b90506110d76040830187610fd3565b6110e46060830186610fd3565b6110f16080830185611014565b6110fe60a083018461108b565b979650505050505050565b6000819050919050565b600061112e61112961112484610fe2565b611109565b610fe2565b9050919050565b600061114082611113565b9050919050565b600061115282611135565b9050919050565b61116281611147565b82525050565b600060208201905061117d6000830184611159565b92915050565b60006020820190506111986000830184610fd3565b92915050565b600081519050919050565b600082825260208201905092915050565b6000819050602082019050919050565b600082825260208201905092915050565b60006111e682610f43565b6111f081856111ca565b9350611200818560208601610f5f565b61120981610f89565b840191505092915050565b61121d81610ee0565b82525050565b61122c81611002565b82525050565b61123b81611079565b82525050565b600060c083016000830151848203600086015261125e82826111db565b9150506020830151848203602086015261127882826111db565b915050604083015161128d6040860182611214565b5060608301516112a06060860182611214565b5060808301516112b36080860182611223565b5060a08301516112c660a0860182611232565b508091505092915050565b60006112dd8383611241565b905092915050565b6000602082019050919050565b60006112fd8261119e565b61130781856111a9565b935083602082028501611319856111ba565b8060005b85811015611355578484038952815161133685826112d1565b9450611341836112e5565b925060208a0199505060018101905061131d565b50829750879550505050505092915050565b6000602082019050818103600083015261138181846112f2565b905092915050565b600060208201905061139e6000830184611014565b92915050565b600080fd5b600080fd5b7f4e487b7100000000000000000000000000000000000000000000000000000000600052604160045260246000fd5b6113e682610f89565b810181811067ffffffffffffffff82111715611405576114046113ae565b5b80604052505050565b6000611418610ecc565b905061142482826113dd565b919050565b600067ffffffffffffffff821115611444576114436113ae565b5b61144d82610f89565b9050602081019050919050565b82818337600083830152505050565b600061147c61147784611429565b61140e565b905082815260208101848484011115611498576114976113a9565b5b6114a384828561145a565b509392505050565b600082601f8301126114c0576114bf6113a4565b5b81356114d0848260208601611469565b91505092915050565b6000806000606084860312156114f2576114f1610ed6565b5b600084013567ffffffffffffffff8111156115105761150f610edb565b5b61151c868287016114ab565b935050602084013567ffffffffffffffff81111561153d5761153c610edb565b5b611549868287016114ab565b925050604061155a86828701610f01565b9150509250925092565b7f4e487b7100000000000000000000000000000000000000000000000000000000600052602260045260246000fd5b600060028204905060018216806115ab57607f821691505b6020821081036115be576115bd611564565b5b50919050565b7f4f6e6c79207468652063616d706169676e2063726561746f722063616e20776960008201527f7468647261770000000000000000000000000000000000000000000000000000602082015250565b6000611620602683610f4e565b915061162b826115c4565b604082019050919050565b6000602082019050818103600083015261164f81611613565b9050919050565b7f43616d706169676e20676f616c206e6f74207265616368656420796574000000600082015250565b600061168c601d83610f4e565b915061169782611656565b602082019050919050565b600060208201905081810360008301526116bb8161167f565b9050919050565b600081905092915050565b50565b60006116dd6000836116c2565b91506116e8826116cd565b600082019050919050565b60006116fe826116d0565b9150819050919050565b7f5472616e73666572206661696c65640000000000000000000000000000000000600082015250565b600061173e600f83610f4e565b915061174982611708565b602082019050919050565b6000602082019050818103600083015261176d81611731565b9050919050565b60006060820190506117896000830186610fd3565b6117966020830185611014565b6117a36040830184610fd3565b949350505050565b7f4f6e6c79207468652061646d696e2063616e2064656c6574652063616d70616960008201527f676e730000000000000000000000000000000000000000000000000000000000602082015250565b6000611807602383610f4e565b9150611812826117ab565b604082019050919050565b60006020820190508181036000830152611836816117fa565b9050919050565b7f4e487b7100000000000000000000000000000000000000000000000000000000600052603260045260246000fd5b7f43616d706169676e206973206e6f742061637469766500000000000000000000600082015250565b60006118a2601683610f4e565b91506118ad8261186c565b602082019050919050565b600060208201905081810360008301526118d181611895565b9050919050565b7f436f6e747269627574696f6e206d75737420626520677265617465722074686160008201527f6e20300000000000000000000000000000000000000000000000000000000000602082015250565b6000611934602383610f4e565b915061193f826118d8565b604082019050919050565b6000602082019050818103600083015261196381611927565b9050919050565b7f4e487b7100000000000000000000000000000000000000000000000000000000600052601160045260246000fd5b60006119a482610ee0565b91506119af83610ee0565b92508282019050808211156119c7576119c661196a565b5b92915050565b7f436f6e747269627574696f6e2065786365656473207468652063616d7061696760008201527f6e20676f616c0000000000000000000000000000000000000000000000000000602082015250565b6000611a29602683610f4e565b9150611a34826119cd565b604082019050919050565b60006020820190508181036000830152611a5881611a1c565b9050919050565b60008115159050919050565b611a7481611a5f565b8114611a7f57600080fd5b50565b600081519050611a9181611a6b565b92915050565b600060208284031215611aad57611aac610ed6565b5b6000611abb84828501611a82565b91505092915050565b7f55736572206973206e6f74207665726966696564206279204b59430000000000600082015250565b6000611afa601b83610f4e565b9150611b0582611ac4565b602082019050919050565b60006020820190508181036000830152611b2981611aed565b9050919050565b7f476f616c206d7573742062652067726561746572207468616e20300000000000600082015250565b6000611b66601b83610f4e565b9150611b7182611b30565b602082019050919050565b60006020820190508181036000830152611b9581611b59565b9050919050565b60008190508160005260206000209050919050565b60006020601f8301049050919050565b600082821b905092915050565b600060088302611bfe7fffffffffffffffffffffffffffffffffffffffffffffffffffffffffffffffff82611bc1565b611c088683611bc1565b95508019841693508086168417925050509392505050565b6000611c3b611c36611c3184610ee0565b611109565b610ee0565b9050919050565b6000819050919050565b611c5583611c20565b611c69611c6182611c42565b848454611bce565b825550505050565b600090565b611c7e611c71565b611c89818484611c4c565b505050565b5b81811015611cad57611ca2600082611c76565b600181019050611c8f565b5050565b601f821115611cf257611cc381611b9c565b611ccc84611bb1565b81016020851015611cdb578190505b611cef611ce785611bb1565b830182611c8e565b50505b505050565b600082821c905092915050565b6000611d1560001984600802611cf7565b1980831691505092915050565b6000611d2e8383611d04565b9150826002028217905092915050565b611d4782610f43565b67ffffffffffffffff811115611d6057611d5f6113ae565b5b611d6a8254611593565b611d75828285611cb1565b600060209050601f831160018114611da85760008415611d96578287015190505b611da08582611d22565b865550611e08565b601f198416611db686611b9c565b60005b82811015611dde57848901518255600182019150602085019450602081019050611db9565b86831015611dfb5784890151611df7601f891682611d04565b8355505b6001600288020188555050505b505050505050565b6000608082019050611e256000830187610fd3565b611e326020830186611014565b8181036040830152611e448185610f9a565b9050611e536060830184610fd3565b95945050505050565b6000611e6782610ee0565b91507fffffffffffffffffffffffffffffffffffffffffffffffffffffffffffffffff8203611e9957611e9861196a565b5b60018201905091905056fea2646970667358221220e4fe0f93e35f4be8fdd470b2e8793acbdeb54d0453f54084992d61e05a15bd5d64736f6c63430008180033",
  "linkReferences": {},
  "deployedLinkReferences": {}
}