{
  "_format": "hh-sol-artifact-1",
  "contractName": "KYCRegistry_Taha",
  "sourceName": "contracts/KYCRegistry_Taha.sol",
  "abi": [
    {
      "inputs": [],
      "stateMutability": "nonpayable",
      "type": "constructor"
    },
    {
      "anonymous": false,
      "inputs": [
        {
          "indexed": true,
          "internalType": "address",
          "name": "user",
          "type": "address"
        }
      ],
      "name": "KYCApproved",
      "type": "event"
    },
    {
      "anonymous": false,
      "inputs": [
        {
          "indexed": true,
          "internalType": "address",
          "name": "user",
          "type": "address"
        }
      ],
      "name": "KYCRejected",
      "type": "event"
    },
    {
      "anonymous": false,
      "inputs": [
        {
          "indexed": true,
          "internalType": "address",
          "name": "user",
          "type": "address"
        },
        {
          "indexed": false,
          "internalType": "string",
          "name": "name",
          "type": "string"
        },
        {
          "indexed": false,
          "internalType": "string",
          "name": "cnic",
          "type": "string"
        }
      ],
      "name": "KYCSubmitted",
      "type": "event"
    },
    {
      "inputs": [],
      "name": "admin",
      "outputs": [
        {
          "internalType": "address",
          "name": "",
          "type": "address"
        }
      ],
      "stateMutability": "view",
      "type": "function"
    },
    {
      "inputs": [
        {
          "internalType": "address",
          "name": "_userAddress",
          "type": "address"
        }
      ],
      "name": "approveKYC",
      "outputs": [],
      "stateMutability": "nonpayable",
      "type": "function"
    },
    {
      "inputs": [
        {
          "internalType": "address",
          "name": "_userAddress",
          "type": "address"
        }
      ],
      "name": "checkKycStatus",
      "outputs": [
        {
          "internalType": "bool",
          "name": "",
          "type": "bool"
        }
      ],
      "stateMutability": "view",
      "type": "function"
    },
    {
      "inputs": [
        {
          "internalType": "address",
          "name": "_userAddress",
          "type": "address"
        }
      ],
      "name": "rejectKYC",
      "outputs": [],
      "stateMutability": "nonpayable",
      "type": "function"
    },
    {
      "inputs": [
        {
          "internalType": "string",
          "name": "_name",
          "type": "string"
        },
        {
          "internalType": "string",
          "name": "_cnic",
          "type": "string"
        }
      ],
      "name": "submitKYC",
      "outputs": [],
      "stateMutability": "nonpayable",
      "type": "function"
    },
    {
      "inputs": [
        {
          "internalType": "address",
          "name": "",
          "type": "address"
        }
      ],
      "name": "users",
      "outputs": [
        {
          "internalType": "string",
          "name": "name",
          "type": "string"
        },
        {
          "internalType": "string",
          "name": "cnic",
          "type": "string"
        },
        {
          "internalType": "bool",
          "name": "isVerified",
          "type": "bool"
        },
        {
          "internalType": "bool",
          "name": "isPending",
          "type": "bool"
        }
      ],
      "stateMutability": "view",
      "type": "function"
    }
  ],
  "bytecode": "0x608060405234801561001057600080fd5b50336000806101000a81548173ffffffffffffffffffffffffffffffffffffffff021916908373ffffffffffffffffffffffffffffffffffffffff16021790555061114e806100606000396000f3fe608060405234801561001057600080fd5b50600436106100625760003560e01c80630c670595146100675780630e27324d146100835780638367d1ff1461009f578063a87430ba146100cf578063c42e588814610102578063f851a4401461011e575b600080fd5b610081600480360381019061007c9190610a5a565b61013c565b005b61009d60048036038101906100989190610b30565b6102f5565b005b6100b960048036038101906100b49190610b30565b61050d565b6040516100c69190610b78565b60405180910390f35b6100e960048036038101906100e49190610b30565b6105c4565b6040516100f99493929190610c12565b60405180910390f35b61011c60048036038101906101179190610b30565b61071e565b005b6101266108dc565b6040516101339190610c74565b60405180910390f35b600160003373ffffffffffffffffffffffffffffffffffffffff1673ffffffffffffffffffffffffffffffffffffffff16815260200190815260200160002060020160009054906101000a900460ff16156101cc576040517f08c379a00000000000000000000000000000000000000000000000000000000081526004016101c390610cdb565b60405180910390fd5b604051806080016040528083815260200182815260200160001515815260200160011515815250600160003373ffffffffffffffffffffffffffffffffffffffff1673ffffffffffffffffffffffffffffffffffffffff16815260200190815260200160002060008201518160000190816102479190610f11565b50602082015181600101908161025d9190610f11565b5060408201518160020160006101000a81548160ff02191690831515021790555060608201518160020160016101000a81548160ff0219169083151502179055509050503373ffffffffffffffffffffffffffffffffffffffff167f74aeb3a73c6cebe2ddfb681c384e0117cc8dd5e93900b3b1507dee33c260384183836040516102e9929190610fe3565b60405180910390a25050565b60008054906101000a900473ffffffffffffffffffffffffffffffffffffffff1673ffffffffffffffffffffffffffffffffffffffff163373ffffffffffffffffffffffffffffffffffffffff1614610383576040517f08c379a000000000000000000000000000000000000000000000000000000000815260040161037a9061108c565b60405180910390fd5b600160008273ffffffffffffffffffffffffffffffffffffffff1673ffffffffffffffffffffffffffffffffffffffff16815260200190815260200160002060020160019054906101000a900460ff16610412576040517f08c379a0000000000000000000000000000000000000000000000000000000008152600401610409906110f8565b60405180910390fd5b60018060008373ffffffffffffffffffffffffffffffffffffffff1673ffffffffffffffffffffffffffffffffffffffff16815260200190815260200160002060020160006101000a81548160ff0219169083151502179055506000600160008373ffffffffffffffffffffffffffffffffffffffff1673ffffffffffffffffffffffffffffffffffffffff16815260200190815260200160002060020160016101000a81548160ff0219169083151502179055508073ffffffffffffffffffffffffffffffffffffffff167f333bb19eeef0621b32888db778cc7a481a89fc1d59adb2cecb59b40ef048941e60405160405180910390a250565b60008060009054906101000a900473ffffffffffffffffffffffffffffffffffffffff1673ffffffffffffffffffffffffffffffffffffffff168273ffffffffffffffffffffffffffffffffffffffff160361056c57600190506105bf565b600160008373ffffffffffffffffffffffffffffffffffffffff1673ffffffffffffffffffffffffffffffffffffffff16815260200190815260200160002060020160009054906101000a900460ff1690505b919050565b60016020528060005260406000206000915090508060000180546105e790610d2a565b80601f016020809104026020016040519081016040528092919081815260200182805461061390610d2a565b80156106605780601f1061063557610100808354040283529160200191610660565b820191906000526020600020905b81548152906001019060200180831161064357829003601f168201915b50505050509080600101805461067590610d2a565b80601f01602080910402602001604051908101604052809291908181526020018280546106a190610d2a565b80156106ee5780601f106106c3576101008083540402835291602001916106ee565b820191906000526020600020905b8154815290600101906020018083116106d157829003601f168201915b5050505050908060020160009054906101000a900460ff16908060020160019054906101000a900460ff16905084565b60008054906101000a900473ffffffffffffffffffffffffffffffffffffffff1673ffffffffffffffffffffffffffffffffffffffff163373ffffffffffffffffffffffffffffffffffffffff16146107ac576040517f08c379a00000000000000000000000000000000000000000000000000000000081526004016107a39061108c565b60405180910390fd5b600160008273ffffffffffffffffffffffffffffffffffffffff1673ffffffffffffffffffffffffffffffffffffffff16815260200190815260200160002060020160019054906101000a900460ff1661083b576040517f08c379a0000000000000000000000000000000000000000000000000000000008152600401610832906110f8565b60405180910390fd5b6000600160008373ffffffffffffffffffffffffffffffffffffffff1673ffffffffffffffffffffffffffffffffffffffff16815260200190815260200160002060020160016101000a81548160ff0219169083151502179055508073ffffffffffffffffffffffffffffffffffffffff167fa34e10975b6442017fb6ca6ba35e6d671924c59f52737e20ef2362a5ca2c275160405160405180910390a250565b60008054906101000a900473ffffffffffffffffffffffffffffffffffffffff1681565b6000604051905090565b600080fd5b600080fd5b600080fd5b600080fd5b6000601f19601f8301169050919050565b7f4e487b7100000000000000000000000000000000000000000000000000000000600052604160045260246000fd5b6109678261091e565b810181811067ffffffffffffffff821117156109865761098561092f565b5b80604052505050565b6000610999610900565b90506109a5828261095e565b919050565b600067ffffffffffffffff8211156109c5576109c461092f565b5b6109ce8261091e565b9050602081019050919050565b82818337600083830152505050565b60006109fd6109f8846109aa565b61098f565b905082815260208101848484011115610a1957610a18610919565b5b610a248482856109db565b509392505050565b600082601f830112610a4157610a40610914565b5b8135610a518482602086016109ea565b91505092915050565b60008060408385031215610a7157610a7061090a565b5b600083013567ffffffffffffffff811115610a8f57610a8e61090f565b5b610a9b85828601610a2c565b925050602083013567ffffffffffffffff811115610abc57610abb61090f565b5b610ac885828601610a2c565b9150509250929050565b600073ffffffffffffffffffffffffffffffffffffffff82169050919050565b6000610afd82610ad2565b9050919050565b610b0d81610af2565b8114610b1857600080fd5b50565b600081359050610b2a81610b04565b92915050565b600060208284031215610b4657610b4561090a565b5b6000610b5484828501610b1b565b91505092915050565b60008115159050919050565b610b7281610b5d565b82525050565b6000602082019050610b8d6000830184610b69565b92915050565b600081519050919050565b600082825260208201905092915050565b60005b83811015610bcd578082015181840152602081019050610bb2565b60008484015250505050565b6000610be482610b93565b610bee8185610b9e565b9350610bfe818560208601610baf565b610c078161091e565b840191505092915050565b60006080820190508181036000830152610c2c8187610bd9565b90508181036020830152610c408186610bd9565b9050610c4f6040830185610b69565b610c5c6060830184610b69565b95945050505050565b610c6e81610af2565b82525050565b6000602082019050610c896000830184610c65565b92915050565b7f5573657220697320616c72656164792076657269666965640000000000000000600082015250565b6000610cc5601883610b9e565b9150610cd082610c8f565b602082019050919050565b60006020820190508181036000830152610cf481610cb8565b9050919050565b7f4e487b7100000000000000000000000000000000000000000000000000000000600052602260045260246000fd5b60006002820490506001821680610d4257607f821691505b602082108103610d5557610d54610cfb565b5b50919050565b60008190508160005260206000209050919050565b60006020601f8301049050919050565b600082821b905092915050565b600060088302610dbd7fffffffffffffffffffffffffffffffffffffffffffffffffffffffffffffffff82610d80565b610dc78683610d80565b95508019841693508086168417925050509392505050565b6000819050919050565b6000819050919050565b6000610e0e610e09610e0484610ddf565b610de9565b610ddf565b9050919050565b6000819050919050565b610e2883610df3565b610e3c610e3482610e15565b848454610d8d565b825550505050565b600090565b610e51610e44565b610e5c818484610e1f565b505050565b5b81811015610e8057610e75600082610e49565b600181019050610e62565b5050565b601f821115610ec557610e9681610d5b565b610e9f84610d70565b81016020851015610eae578190505b610ec2610eba85610d70565b830182610e61565b50505b505050565b600082821c905092915050565b6000610ee860001984600802610eca565b1980831691505092915050565b6000610f018383610ed7565b9150826002028217905092915050565b610f1a82610b93565b67ffffffffffffffff811115610f3357610f3261092f565b5b610f3d8254610d2a565b610f48828285610e84565b600060209050601f831160018114610f7b5760008415610f69578287015190505b610f738582610ef5565b865550610fdb565b601f198416610f8986610d5b565b60005b82811015610fb157848901518255600182019150602085019450602081019050610f8c565b86831015610fce5784890151610fca601f891682610ed7565b8355505b6001600288020188555050505b505050505050565b60006040820190508181036000830152610ffd8185610bd9565b905081810360208301526110118184610bd9565b90509392505050565b7f4f6e6c792061646d696e2063616e20706572666f726d2074686973206163746960008201527f6f6e000000000000000000000000000000000000000000000000000000000000602082015250565b6000611076602283610b9e565b91506110818261101a565b604082019050919050565b600060208201905081810360008301526110a581611069565b9050919050565b7f4e6f2070656e64696e67204b594320666f722074686973207573657200000000600082015250565b60006110e2601c83610b9e565b91506110ed826110ac565b602082019050919050565b60006020820190508181036000830152611111816110d5565b905091905056fea2646970667358221220a79c23723d1ac408b8844ad8c7b386c9059c0ad2b4341e5261bc383bf13d66e464736f6c63430008180033",
  "linkReferences": {},
  "deployedLinkReferences": {}
}